:020000040000FA
:0600000002011A020EE5E8
:03002B0002143587
:030033000214179D
:03005300020F5B3E
:03006B000213EE8F
:10008300020DE7E5C754F84401F5C77901220000E2
:100093000080FB120086B90003020104E4791B7897
:1000A30002B800028004F709D8FCE4791D7802B88D
:1000B30000028004F709D8FCE490028178CC790A25
:1000C3008002F0A3D8FCD9FA781A90014A7A01BACF
:1000D30000028007E493A3F608DAF97A4C7B0C90CC
:1000E300014B78C479018015E493A3AD82AE838A72
:1000F300828B83F0A3AA82AB838D828E83D8E9D9C6
:10010300E775829C758366740012012C7582917564
:100113008300740012012C75D00075813F7518811E
:10012300751902759F00020096C09FF59FE473D076
:100133009F22D083D082C09FE493C0E0740193C018
:10014300E0740293F59F220101307503020104005C
:10015300000000000000000000000000000000009C
:100163000000000000000000000000FF0000B400D9
:100173000028002800283075A000A000A000A000DF
:1001830000080008E001F00010001000100010004B
:100193001000100050005000500010001000D00755
:1001A3000000000000000F0001000500307507008B
:1001B3001000010081FF00000000FF8602A4028CF2
:1001C30002FFD003D003D003D003D003D003D00366
:1001D300D003D003D003D003D003D003FFFFFF002D
:1001E300080964422E42656163020A001AFF4C004B
:1001F3000215E37B185F526EB9499728A6B39F2077
:100203009C9800010001C01E070000120135ED2873
:1002130000120135B22A001201358B2B0012013571
:10022300D42B00120135072C00120135FB2C0012D0
:100233000135F647001201351E48001201354B48BF
:1002430000120135834800120135CF4800120135F1
:100253001B49001201355B4900120135054A0012A2
:100263000135CD6400120135E46400120135C81B69
:1002730000120135B21C001201355D1D001201355B
:10028300AE1D001201355E1E00120135CF1E001295
:100293000135B41F00120135E81F00120135E120BA
:1002A300001201351E2100120135FA210012013519
:1002B300392200120135552200120135A6530012CE
:1002C3000135B15300120135C353001201359B545C
:1002D30000120135A0540012013591550012013569
:1002E300415900120135695900120135BD590012F7
:1002F3000135D25900120135E75900120135485A28
:10030300001201358B5A00120135B55A001201351E
:10031300DA5A00120135934A00120135764B001266
:100323000135F35F001201353660001201353D6778
:10033300001201356C14001201350216001201354A
:10034300D816001201357A1700120135ED17001285
:1003530001358B1900120135C71900120135521BE3
:10036300001201352F4D00120135F74D00120135F2
:100373004F4F00120135B622001201353723001208
:100383000135642300120135A92300120135A0248D
:1003930000120135EE24001201356A2600120135E0
:1003A300E726001201354C2700120135BD27001244
:1003B3000135AB2800120135D82800120135D15D73
:1003C30000120135DD5D00120135B15E0012013509
:1003D3005F68001201353A2E001201355E2E0012BD
:1003E3000135572F00120135CA30001201356B3227
:1003F30000120135E032001201352E3300120135AF
:10040300483300120135623300120135B94100123D
:1004130001354F4200120135654200120135BE42DB
:10042300001201350243001201353C43001201352D
:10043300D443001201354344001201354C440012E9
:1004430001355844001201358544001201359A44A0
:1004530000120135FC440012013523450012013519
:10046300794F00120135864F00120135A04F00125B
:100473000135D34F001201353850001201354D506C
:100483000012013558500012013565500012013534
:100493007C50001201358A5000120135955000122C
:1004A3000135A45000120135C15000120135D1505D
:1004B30000120135E75000120135035100120135D6
:1004C3000E5100120135235100120135375100122C
:1004D3000135746500120135A06500120135FB6515
:1004E30000120135F86700120135C26200120135AE
:1004F300D36200120135F46600120135336700122E
:1005030001354E6800120135E56100120135F561D0
:10051300001201350A6200120135BC620012013576
:10052300F05E00120135745F00120135DA5F0012CC
:100533000135025B001201352B5B00120135915B23
:1005430000120135B05B00120135045C0012013565
:100553005D5C00120135985C001201359B5C001252
:1005630001355145001201356645001201356A46D1
:1005730000120135DE4600120135F846001201353E
:100583000F47001201352247001201353A47001286
:1005930001354F4700120135704700120135C1473D
:1005A3000012013538680012013548680012013520
:1005B3004B6800120135F87F001201359A5500127D
:1005C300013510570012013571570012013576635A
:1005D300001201359F6300120135E16300120135FA
:1005E3007D3800120135873800120135D0380012EA
:1005F3000135263900120135453900120135963986
:1006030000120135BF3900120135D439001201350A
:10061300443A00120135D23A00120135163B00125A
:1006230001353E3B00120135BD3B00120135003C54
:10063300001201353D3C001201354F3C00120135DB
:100643006E3C00120135773C001201350D66001235
:100653000135A55C00120135CF5C00120135EE6057
:1006630000120135A45100120135DA51001201358F
:100673001352001201356C53001201352664001227
:1006830001353C64001201354664001201359C6457
:10069300001201358667001201356B3300120135F4
:1006A300283400120135633400120135C5340012B9
:1006B30001351135001201357C3500120135F8354D
:1006C300001201357F37001201350238001201355F
:1006D300663800120135413D00120135563D0012C6
:1006E3000135063E00120135463E001201355F3EDC
:1006F30000120135923E00120135DF3E0012013532
:10070300133F00120135553F0012013553410012CA
:100713000135745700120135295800120135695803
:1007230000120135CC67001201351A6800E06670CB
:100733001008A3E066700A08A3E066700408A3E04B
:100743006622C3E7960809E7960809E7960809E7CA
:100753009622C3E09608A3E09608A3E09608A3E0D8
:100763009622C008C3E096F50808A3E0964208085D
:10077300A3E096420808A3E09645087001D3D00889
:1007830022080808EAC0E0EBC0E086F0E7A4FA1804
:100793000986F0E7A42AFA180986F0E7A42AFA18CA
:1007A3000986F0E7A42AFA1986F0E7A4FBE5F02A04
:1007B300FA190886F0E7A42BFBE5F03AFA19088644
:1007C300F0E7A42BFBE5F03AFA18180986F0E7A442
:1007D300C5F02BFBE43AFA1908E7C5F0C6A426F6E0
:1007E300E5F03BFBE43AFA1886F0E7A4F6E5F008F7
:1007F30026F6E43B08F6E43A08F6D0E0FBD0E0FA4C
:1008030022E4CFC0E0E4CEC0E0E4CDC0E0E4CCC05D
:10081300E075F020E626F608E633F608E633F60838
:10082300E633F6181818EC33FCED33FDEE33FEEF28
:1008330033FFC3EC9709ED9709EE9709EF97191961
:1008430019400FFFEC97FC09ED97FD09EE97FE1990
:100853001906D5F0BFECF709EDF709EEF709EFF745
:10086300191919D0E0FCD0E0FDD0E0FED0E0FF2262
:100873006016080808C6C313C618C613C618C613DD
:10088300C618C613C6D5E0EA227009080808226014
:1008930016181818C6C333C608C633C608C633C6E7
:1008A30008C633C6D5E0EA22E627F60809E637F696
:1008B3000809E637F60809E637F622E026F608A324
:1008C300E036F608A3E036F608A3E036F622E02683
:1008D300F008A3E036F008A3E036F008A3E036F012
:1008E30022C3E697F60809E697F60809E697F6089D
:1008F30009E697F622C3E096F008A3E096F008A372
:10090300E096F008A3E096F022E056F608A3E0563E
:10091300F608A3E056F608A3E056F622E0F608A38D
:10092300E0F608A3E0F608A3E0F622E6F008A3E663
:10093300F008A3E6F008A3E6F022E0FAA3E0FBA3A5
:10094300E0FCA3E0FD22E0F8A3E0F9A3E0FAA3E0D2
:10095300FB22E8F0A3E9F0A3EAF0A3EBF022CAC07C
:10096300E0E6F0A308DAFAD0E0FA22CAC0E0E0A396
:10097300C582CCC582C583CDC583F0A3C582CCC552
:1009830082C583CDC583DAE6D0E0CA22B90010BBA5
:100993000008E88AF084F8AAF022E4FBC8FA22EB04
:1009A30070227B10C833C8C933C9335007C39AC3F5
:1009B300DBF280069A50012ADBEAC833F4C8C93354
:1009C300F4C9FA2275F008E4C833C8C933C933C976
:1009D3009AC99B5004C92AC93BD5F0ECFBC833F430
:1009E300C8E4C9FA22600D08C6A2E713C618C613E5
:1009F300C6D5E0F322600C08C6C313C618C613C6D7
:100A0300D5E0F422700422600D18C6C333C608C6AD
:100A130033C6D5E0F41822251810AF08F518400C9A
:100A230015198008F51840021519D2AF2200C0D05D
:100A3300251810AF08F518500C05198008F5185043
:100A4300020519D2AFD0D0222518F58210AF08F5D0
:100A530018400C15198008F51840021519D2AF85F6
:100A63001983222518F582E43519F583222518F810
:100A7300E43519F9222518FAE43519FB222518FC67
:100A8300E43519FD22E4732518C582C0E0E5193465
:100A9300FFC583C0E0E518C3958224F810AF08852D
:100AA30083198582188008858319858218D2AFCE71
:100AB300F0A3E520F0A37808E608F0A3DEFAEFF050
:100AC300A3E58124FAF8E608F0A3E608F0A3E60814
:100AD300F0A30808E608F0A3E608F0A31581158142
:100AE300D0E0FED0E0F8158115811581E8C0E0EE75
:100AF300C0E0222518C582C0E0E51934FFC583C0D4
:100B0300E0E518C3958224F910AF0885831985821F
:100B1300188008858319858218D2AFCEF0A3E5200B
:100B2300F0A37808E608F0A3DEFAEFF0A3E581244A
:100B3300FBF8E608F0A3E608F0A30808E608F0A32C
:100B4300E608F0A315811581D0E0FED0E0F8158109
:100B53001581E8C0E0EEC0E022851983851882E0A4
:100B6300A3FEE0A3F5207808E0A3F608DFFAE0A3EC
:100B7300FFE0A3C0E0E0A3C0E0E0A3C0E0E0A3C0C7
:100B8300E0E0A3C0E010AF088582188583198008D0
:100B9300858218858319D2AFD083D0820201328532
:100BA3001983851882E0A3FEE0A3F5207808E0A36B
:100BB300F608DFFAE0A3FFE0A3C0E0E0A3C0E0E0B3
:100BC300A3C0E0E0A3C0E010AF08858218858319B5
:100BD3008008858218858319D2AFD083D08222C042
:100BE300D02518C582C0E0E51934FFC583C0E0E510
:100BF30018C3958224F310AF088583198582188062
:100C030008858319858218D2AFC8F0A3E9F0A3EA57
:100C1300F0A3EBF0A37908E709F0A3D8FAECF0A36B
:100C2300EDF0A3EEF0A3EFF0A3D0E0F0A3D0E0F05B
:100C3300A3D0E0F0A3E520F0A3E5F0F0A32285190B
:100C430083851882E0C0E0A3E0F9A3E0FAA3E0FB08
:100C5300A37808E0F608A3DFFAE0FCA3E0FDA3E035
:100C6300FEA3E0FFA3E0C0E0A3E0C0E0A3E0F5D073
:100C7300A3E0F520A3E0A3F5F010AF088583198561
:100C830082188008858319858218D2AFD082D083D9
:100C9300D0E0F8D0E032740480067402800274015C
:100CA300C0E0F404120A4BD0E012096122740480FC
:100CB3000474028000CCC0E0EDC0E0E518C39CCC16
:100CC300AD1950011D10AF068C188D1980068C18B4
:100CD3008D19D2AF12096ED0E0FDD0E0FC22D08393
:100CE300D082E9C0E0E493A3C386F0C5F095F0F9A0
:100CF30008E493A386F0C5F095F0700BE493A3C3C7
:100D0300994005E9048002A3E475F002A42582F565
:100D130082E5F03583F583D0E0F9E493A3C0E0E402
:100D230093C0E022D083D082ECC0E0EDC0E0E49336
:100D3300A3FCE493A3FDED4C600D120D73EC24FFB3
:100D4300FCED34FFFD80EFE493A3FCE493A3FDEDFE
:100D53004C600D120DB2EC24FFFCED34FFFD80EF6F
:100D6300D0E0FDD0E0FCE493A3C0E0E493C0E02234
:100D7300C0E0C3E49396087401939618400FE4937C
:100D830066700808740193661870007019A3A3C3F2
:100D9300E49396087401939618A3A3400DD0E0D072
:100DA300E0D0E0020D63A3A3A3A3A3A3D0E022C0DA
:100DB300E0C0F088F0E49366700808740193661845
:100DC3007000A8F0A3A3700BD0F0D0E0D0E0D0E087
:0A0DD300020D63A3A3D0F0D0E022CC
:100DE000851B87851CC622C0E074EF120BE2A2AF00
:100DF000E433FEC2AF759B00906182E0A2E050092F
:100E0000E591A2E050037591FEE0A2E55009E5915D
:100E1000A2E550037591DFE0A2E64003020EBBE5B8
:100E200091A2E64003020EBB7591BF900303E064FC
:100E3000057008120436120442800312043C751B2C
:100E400000120496E9900304F0790012048A120358
:100E5000887A017B00900302E0F91206289078035B
:100E6000E06442705690037EE014F0704EC2AF1200
:100E70000E7200781ED0E0F618D0E0F6E59F540719
:100E8000F870057509FF800375097FC4C0E0781DFF
:100E9000E6F50808E65509F509740B78081209F813
:100EA000D0E02508F8906270E0A2E740F8E8C3338C
:100EB000906272F0906270E0D2E0F0906181E0A206
:100EC000E35009E5E9A2E3500375E9F7A3E0A2E7DF
:100ED0005009E591A2E7500375917FEEA2E092AF31
:100EE0007F04020C41C0E0C0D0C082C08390618307
:100EF000E0A2E05009E5BFA2E0500375BFFEE0A20A
:100F0000E15009E5BFA2E1500375BFFDE0A2E25048
:100F100009E5BFA2E2500375BFFBE0A2E35009E57B
:100F2000BFA2E3500375BFF7E0A2E45009E5BFA2FA
:100F3000E4500375BFEFE0A2E55009E5BFA2E5501C
:100F40000375BFDFE0A2E65009E5BFA2E6500375D6
:100F5000BFBFD083D082D0D0D0E032C0E074F212D4
:100F60000BE2E5A7A2E6500FE5A1A2E6500953A7C0
:100F7000BF75A1BF120FAFE5A7A2E5500CE5A1A276
:100F8000E5500653A7DF75A1DFE5A7A2E15009E50B
:100F9000A1A2E1500375A1FDE5A7A2E2500CE5A1D5
:100FA000A2E2500653A7FB75A1FB7F01020C41741E
:100FB000F7120AF6751B01900303E0640670151220
:100FC00003FA8A828B83A3A3A3A3A3A3E0FAA3E0DB
:100FD000FB120424A2AFE433FED2AF900309E06415
:100FE0000170187A207B00900302E0F91206FA7A69
:100FF000207B00900302E0F912062E906182E0D27D
:10100000E6F090037BE0602185C61C801690030803
:10101000E064017008E5C654F84405F5C653BEFC0B
:10102000120DE07401651B60E4EEA2E092AF7F0256
:10103000020BA274E9120AF674FA120A1AEAFEEB1B
:10104000FF8C0A8D0B120454EAF8EBF9ECFAEDFB75
:101050008E828F83120955900303E024F7C3940511
:10106000500675140102119A1203FA8A088B09EAD4
:1010700045097003021197EEFCEFFDAA18AB191297
:10108000044E850882850983A3A3780C12091F905A
:1010900080BB780C12090C85188285198378101290
:1010A000091F9080BB781012090C780C7910120778
:1010B00045501F780C79101208E490807B780C1250
:1010C00007654047850C14850D15850E16850F178D
:1010D000804590807B851014851115851216851327
:1010E000177814790C1208E47814120765501C75EF
:1010F0001400751500751600751701781479101213
:1011000008E47814790C1208AB800C75140175157D
:10111000007516007517007409781412088C9080F9
:10112000C3780C12091F7814790C12080485088200
:10113000850983A3A3A3A3A3A31211B812098F88BF
:101140000C890DE4F50EF50F7814790C1208AB74C8
:1011500004120A661211B812098FE8FA8A0CE4F533
:101160000D7814790C12074550077814790C120881
:10117000E4900303E06408600AE064066005E0644C
:1011800005702090807F7814120765501690808338
:1011900078141208BE800C751400751500751600C1
:1011A000751700850A82850B83781412092E740640
:1011B000120A307F10020BA2E0F8A3E0F97AD07B8C
:1011C000032274F7120AF6120466900379E06401B0
:1011D0007010906245E4F0A3F053F4F343FE0C5317
:1011E00090F3120412E5C654B84441F5C6E59E5486
:1011F00047644170F8906185740FF0900377E0F4D4
:101200007002A3E0604E900378E0600814601B1445
:10121000602E8040750801750900900377E078081A
:10122000120A07E508F45280802A75080175090042
:10123000900377E07808120A07E508F452908014CA
:10124000750801750900900377E07808120A07E530
:1012500008F452A079007F02020BA274F7120AF67A
:10126000E9FEEAFF12046674016E700C7A807B005E
:10127000900302E0F9120628901464E493F46008E5
:10128000E493F912037C800953C6B8E59E54477075
:10129000FA120418900379E06401700312039A9023
:1012A0000377E0F47002A3E0604B900378E06008FD
:1012B00014601A14602C803D7508017509009003B4
:1012C00077E07808120A07E508428080287508014F
:1012D000750900900377E07808120A07E508429044
:1012E0008013750801750900900377E07808120AE9
:1012F00007E50842A01203FA8A088B09A808A90981
:10130000E8496014E5E170FCE82414F582E439F55D
:1013100083E0F46003E0F5E174016F700A7A0190F4
:101320000302E0F912068802125674F1120AF68AD4
:10133000088B098C0A8D0B9080BB780812090C74FD
:101340000F120A66780C12091F9080BB780C1209E4
:101350000C7808790C12074590807B50107808793A
:101360000C1208E478081207654014800E780C7996
:10137000081208E4780C120765500479018002799C
:10138000007F08020BA274ED120AF68A088B098C02
:101390000A8D0B9080BB780812090C7413120A6630
:1013A000780C12091F9080BB780C12090C780C790C
:1013B0000812074540117808790C1208E4AA08AB16
:1013C00009AC0AAD0B802275100075110075120072
:1013D0007513017810790C1208E478107908120856
:1013E000ABAA10AB11AC12AD137F0C020BA2C0E084
:1013F00074F2120BE2A2AFE433FED2AFE589A2E1B0
:101400005003120550758900C2C5751A00EEA2E09E
:1014100092AF7F01020C41C0E074F2120BE2A2AF66
:10142000E433FED2AFE58BA2E05003120550758B7A
:1014300000C2E880D5C0E0C0D0E8C0E0E9C0E0A9C3
:10144000A8D2AFC2C7751A00E9A2E7E433F8E9A24F
:10145000E792AFD0E0F9D0E0F8D0D0D0E032C2AF20
:1014600002000022FFFFFFFFFFFFFFFF74F4120ADC
:101470008AE9900302F0120460907800E0C4540FEF
:10148000540764037004793F8002797F75080675FC
:1014900009007808120C9D7CF07D027AEA7B071225
:1014A00005207402120A309002F0E0F47049A3E0C3
:1014B000F47044A3E0F4703FA3E0F4703AA3E0F4C6
:1014C0007035A3E0F4703090780EE09002F0F09068
:1014D000780FE09002F1F0907810E09002F2F09036
:1014E0007811E09002F3F0907812E09002F4F0901E
:1014F0007813E09002F5F09002F61215F9121B979E
:101500009003147406F0A3740D1217D97441F0A35C
:101510007401F090031E1215F990031DE4F090037E
:101520002BF0A374A01217D97403F0A37407121739
:10153000D974281217D904F0A3E4F0900354F09062
:10154000037774FFF0A3E4F0900379F090037B0439
:10155000F090037C7490F0A37401F01203941203D2
:101560004012040C79017A7E7B031203C490037E3F
:10157000E075F01484E5F004F01203CA7A009003D9
:1015800002E0F9120688907803E0644270569003F6
:101590007EE014F0704EC2AF12159B00781ED0E0B2
:1015A000F618D0E0F6E59F5407F870057509FF803E
:1015B0000375097FC4C0E0781DE6F50808E6550903
:1015C000F509740B78081209F8D0E02508F8906244
:1015D00070E0A2E740F8E8C333906272F090627066
:1015E000E0D2E0F0900319E4F0A3F07A80FB9003DE
:1015F00002E0F91206280217C774FF1217DFF0A3E2
:10160000F02274F4120A8AEAFEEBFFEEA2E0503FE9
:10161000900304E0C39480E0500F25E0F8E433F930
:1016200074C628F582740C800EF425E0F8E433F9D2
:1016300074D428F582740C39F583121B49120A8878
:101640007A00900302E0F9120688EE6401803B54B0
:1016500080603B90037C1217CCE849602A79001225
:10166000068290037CE0F508A3E0F509E4F50AF5AD
:101670000B7808120C997A007B01900302E0F912B2
:1016800006EE7404120A30EE6480FAEF802DEF54F7
:1016900001600C7901120682EEFAEF6401801CEF02
:1016A0005402600AC2AF75C9AB75C95B80FEEF54C6
:1016B00004600B12145EEEFAEF6404FB80179003D3
:1016C00009E06401700BEE54206006EE6420FA809D
:1016D000047A007B000217C7C082C083C2AF120425
:1016E0003CE5E170FC75E10112038275E1F1120441
:1016F0006C12037679071204BA79011204C07902D8
:101700001204901204A21204AE79001204B47901FA
:101710001204B49080C712093D12047890032BE4A0
:10172000F0A3F0A3F090032F7407F090032E74033E
:10173000F0900334E4F0900333F0900354F012037C
:10174000D61203B879001204C6906012E4F0A3F038
:10175000906063F0751B00900303F0900305F0A305
:10176000F0900308F090030904F090031304F09044
:10177000037AE4F0D2AFF90217C0C082C0839002AE
:10178000F01217D29002F11217ACF09002F2121779
:10179000ACA3F09002F31217ACA3A3F09002F412E2
:1017A00017B3F09002F51217B3A38011E08A828B71
:1017B00083A322E08A828B83A3A3A3A322F07900D0
:1017C000D083D0820201327F04020B5CE0F8A3E0F8
:1017D000F922E08A828B83F022F0A3E4F0A322F0C6
:1017E000A3F0A3F0A3F0A3227F02020B5C74F71214
:1017F0000A8AEAFEEBFF8908E9605D74016508600A
:101800001574036508603B740265086035740465EF
:101810000860030218C2740B120A661217CCE8495A
:1018200070030218C2740A120A66E0F860087401B4
:101830006860030218C274036508600674026508D4
:10184000702AEE2460F8EF12197B5076EC2460F8D1
:10185000ED12197B4016806AEE24E0F8EF12197041
:101860005060EC24E0F8ED1219705056C3EC9EED78
:101870009F404F7409120A66E0FA600574016A70AD
:1018800041740E120A66E0F8600F740168600A7411
:10189000026860057403687029740D120A66E0F925
:1018A000740759601D90032BE064017005790C02E8
:1018B000196EE508600C740165086006740465081B
:1018C0007005791202196E74075990032FF0E5081C
:1018D00090032EF0E8900330F0EA90031D702FE49F
:1018E000F09002F0E090031EF09002F1E090031FF0
:1018F000F09002F2E0900320F09002F3E0900321D8
:10190000F09002F4E0900322F09002F5802E740132
:10191000F09002F6E090031EF09002F7E090031FB3
:10192000F09002F8E0900320F09002F9E09003219B
:10193000F09002FAE0900322F09002FBE090032383
:10194000F0E87004790080197401687004790180EE
:101950001074026870047902800774036870057956
:10196000031204A890032CEEF0A3EFF07900801688
:1019700034FFF9C3E894E1E9943F2234FFF9C3E866
:101980009461E9943F227F01020B5C74F6120A8A8B
:10199000E9FEC39420500BEE900334F0601EEA4B36
:1019A00070047912801E121B8E120C9DEAFCEBFD56
:1019B0007A357B031205E67402120A309003337401
:1019C00001F079000217E874F4120A8AE9FF900323
:1019D00003E064097003021AD2E0640A7003021A79
:1019E000D2E0640B7003021AD2E0640C7003021A96
:1019F000D2E0640D7003021AD290032EE0601664E8
:101A0000016012E06403600DE064026008E06404B9
:101A10006003021B4590031DE06007640160030240
:101A20001B4590032EE064036005E0640270109093
:101A3000032CC3E094A0A3E094005003021B459044
:101A4000032EE07003021B4564017003021B45E096
:101A500064047003021B45EF7003021ADE14600376
:101A6000021B4590032BE06401606779011203EECD
:101A700090031BEAF0A3EBF090032B7401F09003AA
:101A800003E070551204488A088B098C0A8D0B906C
:101A900080BF78081208BE9080BB780812090C90AD
:101AA000031B121B49A3A3780812092E90031BE005
:101AB000F8A3E0C82406F582E438F583E4F0A3F047
:101AC0001203A0E960107A1B7B031203F490032B2E
:101AD000E4F0792180051203DC79000217C7900336
:101AE0002BE060EEA2AFE433FEC2AF7A1B7B0312A1
:101AF00003F490032BE4F0120406E9704112043C55
:101B0000906182E0C2E6F0E5E170FC75E10175915B
:101B1000BF75E1F1900309E0640170187A207B0041
:101B2000900302E0F91206FA7A207B00900302E0AB
:101B3000F912062E7A00900302E0F9120688EEA24E
:101B4000E092AF809479128092E0F8A3E0F5838868
:101B5000822274F6120A8AE9FEC39420500BEE909A
:101B60000354F0601EEA4B70047912801E121B8E23
:101B7000120C9DEAFCEBFD7A557B031205E674021C
:101B8000120A309003337401F079000217E8E0F58F
:101B9000087509007808229002F0E09002FCF090AD
:101BA00002F1E09002FDF09002F2E09002FEF0906F
:101BB00002F3E09002FFF09002F4E0900300F09056
:101BC00002F5E0900301F02274F4120A8A8908EA0F
:101BD000FEEBFF1222AC60057911021C9E9002B64A
:101BE000E0540560309002D31222AF6005121ECA85
:101BF00070057910021C9E9002B6E0A2E040061229
:101C000002CEE960158E828F83E0F8740368600A63
:101C100074026860057912021C9E7A0C7B00120621
:101C2000709002D1121E581222AC606E121FE2E5B3
:101C300008121CA1E4F0750A0AF50B780A120C9D33
:101C4000EEFCEFFD9002D1E02402FAA3E03400FBA9
:101C50001205E67402120A3012028CE9FE600512C7
:101C600002B080389002B7E0640370307A1D7B00C8
:101C70001202389002B8121E589002B81222AF60B9
:101C80001B9080CB120CB07A047B009002D9E0F953
:101C90001206F47404120A3080027E13EEF9022157
:101CA000DFF09002D1121CA9221221F5F58388825F
:101CB000A32274EE120A8A890C8A0A8B0B8C0E8D71
:101CC0000F9002B6E054057003021D567401650AB8
:101CD000700D9002D31222AF607C9002D3800B90E3
:101CE00002D51222AF606F9002D5E0FEA3E0FFEBB9
:101CF000C394205008EB6009EC450F700479028012
:101D000057E50C900CBEF08E828F83A385820885E8
:101D100083097C1F7D007900AA08AB091205F285B2
:101D20000B107511007810120C9DAC0EAD0FAA08A7
:101D3000AB091205E67402120A308E828F83E50B1E
:101D4000F0F9E50AAA08AB0960051202EC8003125B
:101D500002F2E9F9800279127F0A020B5C74F71231
:101D60000A8A1222AA700479128039121ECA6E6081
:101D7000047903802F7A027B009002D9E0F91206E1
:101D8000FA9002D7E4F0A3F07A04FB9002D9E0F9CC
:101D90001206FA9002B8E4F0A3121CA17403F079C1
:101DA000001202F8021E50D083D08202013274F772
:101DB000120A8A9002D31222AF600D1221E9120694
:101DC000769002D3E4F0A3F09002D51222AF601017
:101DD0009002D51221EC1206769002D5E4F0A3F021
:101DE0009002B6E05405605F7ABF7B0C1202DA7E87
:101DF000009002B6E05405604A7A207B001206701B
:101E0000121E559002D31222AF60367C207D0079DD
:101E1000001205F27A207B001206709002D5121E85
:101E2000589002D51222AF600B7C207D0079001201
:101E300005F2800F1221E91206769002D3E4F0A396
:101E4000F07E13EEF980097A007B001202DA790045
:101E50007F01020B5C9002D3EAF0A3EBF02274F650
:101E6000120A8A7E018A828B83A3A3A3E0FCA3E0EB
:101E7000FD8C088D097808120CE1062004BD1E892E
:101E80001EBD1E9B1E9B1E911E12222712029280B7
:101E900006122227120298E9FE802474086C70034F
:101EA00074206D70047901800279008A828B83A38B
:101EB000A3A3A3A3121EC7FA12029E80027E00EE05
:101EC000F90221E49002D3E0F8A3121FE2E02274A9
:101ED000F2120A8A1222AC7003021FA1121FDDA3A4
:101EE000E0F50B1202CEE960137A0A7B0012023889
:101EF0008A088B09AE08AF097A0B802A1202B6E96C
:101F000060137A067B001202388A088B09AE08AF8C
:101F1000097A0780117A087B001202388A088B0937
:101F2000AE08AF097A097B001202388A088B099043
:101F300002B7E07005750A008003750A019002D1AE
:101F4000E02404FAA3E03400FB121CA2A3A3E0F9EE
:101F5000120250E9F91221F2C8240B121FA8120C28
:101F6000A11221F2C8240A121FA8120CA19002D1BA
:101F7000E02404F50CA3E03400F50D780C120C9D60
:101F8000E9F50C780C120CA1780A120CA1A90BAC83
:101F900008AD09EEFAEFFB1202E67406120A308071
:101FA0000279017F06020B5CF582E438F583E0F5E7
:101FB0000C780C2274F7120A8A1222AA601AEE70A8
:101FC0000C121FDD7401F0F91202F8E9FEEE600454
:101FD000F91202AA790180027900021E50121FE252
:101FE000A322E0F58388822274F0120A8A1222AAC0
:101FF00070030220C9121FDDE0640160030220A209
:102000001202B6E960557A017B001202388A088B09
:1020100009E4F50AF50BC3EA9442EB9400402B90D7
:1020200080CB120CB07A027B009002D9E0F9120644
:10203000F47404120A30E50824C4F8E50934FFF901
:102040009002D7E8F0A3E9F0804190808F780C12DD
:10205000091F7808790C12078480107A007B00121F
:1020600002388A088B09E4F50AF50BE508450945AD
:102070000A450B60167808120C997A027B009002D0
:10208000D9E0F91206EE7404120A30121CA274028E
:10209000F09002BAE07007EEF91202AA8027E4F08D
:1020A00080239002BAE0701D7A037B001205F8EAE3
:1020B0004B600F1220D07404F09002D11222301223
:1020C00006041202B07901800279007F08020B5CDD
:1020D0008A828B8374D0F0EEA3F08A828B83A3A3D1
:1020E0002274F6120A8AE9FEEAFF900CBEE0F46060
:1020F0002A7A047B001205F8EA4B601F8A828B83E0
:1021000074D0F0EF1220D87402F0EE8A828B83A391
:10211000A3A3F0900CBEE0F91206040221E474F4CB
:10212000120A8AE9FE74016E60030221BA9002D796
:102130001222AF60069002BAE060121222AC700365
:102140000221DD121ECAF912027A0221DD9002D7A5
:10215000C3E0943CA3E09400400D9002D7E024C477
:10216000F0A3E034FF80507A027B009002D9E0F9BE
:102170001206FA9002D7E0F508A3E0F509E5087524
:10218000F0E8A4C508A8F075F003A428F875F0E8F5
:10219000E509A428F509E4F50AF50B7808120C996D
:1021A0007A027B009002D9E0F91206EE7404120A5A
:1021B000309002D7E4F0A3F080231222AC601E908E
:1021C00002B6E0A2E250167A027B009002D9E0F952
:1021D0001206FA9002D7E4F0A3F01202B080007F5A
:1021E00004020B5C7F02020B5C9002D3E0FAA3E0D6
:1021F000FB229002D1E0F8A3E02274F6120A8A12C0
:1022000022AA60207A037B001205F8EA4B600F12C5
:1022100020D07403F09002D1122230120604EE6036
:10222000031202B00221E48A828B83A3A3A3A3A397
:10223000E0F8A3121FE2E0F922C082C0831222ACB0
:1022400060109002D11221EC1206769002D1E4F0D7
:10225000A3F0021DA774F6120A8A74FF120A1A90DC
:1022600002D31222AF60399002D3E02401F508A313
:10227000E03400F5097808120C9D121EC4FC7402AB
:10228000120A7879011202687402120A308A828B6B
:1022900083E58245836009E0A2E050047901800271
:1022A00079007401120A300221E4E9FE9002D11291
:1022B00021F5F9E84922C082C0839061907404F04E
:1022C000A37448F0A37402F09061807440F09061B0
:1022D000BC7403F09061877419F0906265741BF010
:1022E000906249E0C3941390619C40107409F0908F
:1022F00060667401F090619F7428800D740BF090FB
:102300006066E4F090619F742CF01224897009C219
:1023100091900307746780059003077461F012249D
:10232000E4901464E493F46006E493F912037C7976
:10233000051204CC022499C082C083E9540FF9909D
:102340006185E0696012E5C654B84441F5C6E59E72
:102350005447644170F8E9F053C6B8E59E5447709D
:10236000FA022499C082C083A8A853A87E906181F4
:10237000E4F0A3F0A3F0C2BA539AFEC289759B00A1
:10238000C2C275E90075910075BF0075A91175B9D4
:1023900005906181F0A374C0F0A3E4F0D2BA439A2F
:1023A0000174805842A8022499C082C08374F81234
:1023B0000A1A9003051228C3E84970030224829088
:1023C0000305E0544060177908AA18AB191203C43A
:1023D000AA18AB191202FE900305E054BFF0E0A268
:1023E000E0501E1224897009C2919003077467801F
:1023F000059003077461F0120304900305E054FE96
:10240000F0E05402601E1224D77009D291900307A5
:1024100074718005900307746AF012030490030539
:10242000E054FDF0E0540460109014681224E712A8
:10243000030A900305E054FBF0E054086010901488
:10244000691224E712030A900305E054F7F0E05400
:1024500010600D1224E412030A900305E054EFF01B
:10246000E05420600A12030A900305E054DFF0A351
:10247000E05401600D12039A120310900306E05419
:10248000FEF07408120A30801090619A1226D990DA
:102490000379E0640122F0A3F0D083D082020132FC
:1024A000C082C083E96005146017802912248970F6
:1024B00009C2919003077467801A900307746180C2
:1024C000131224D77009D29190030774718005907C
:1024D0000307746AF080C290619A1226CB90037948
:1024E000E064012290146AE493906186F02274EA19
:1024F000120A8A74F4120A1A9080ABAC18AD1974DF
:102500000412096E90146893F460030226609078B8
:1025100008E0C394025003022644908059740412C8
:102520000A80740812096EA818A9198814891574EC
:1025300004120A7088088909AE08AF097510FF7582
:1025400011FF750EFF7C00750C48750D78801274B4
:10255000086C70030225DA74096C607E740A6C6082
:1025600079850C82850D83780812091F8E828F83EE
:10257000A909E50AC9F8881274187808120873E5E1
:10258000124508F8C3E098A3E099850C82850D8375
:10259000780812091F40188E828F837418780812E9
:1025A0000873E5124508F8E0C398F8A3E0801A74B0
:1025B000187808120873E5124508FAE9FB8E828F35
:1025C000831228C3EAC398F8EB99F9C3E89510E998
:1025D00095115006881089118C0E0CE50C2404F519
:1025E0000C5002050DECC39413500302254F74FFE9
:1025F0006510700474FF65116024850E08740278FC
:1026000008120A0774482508F58274783509F5839D
:10261000780812091F851482851583E508F0EE24D9
:1026200002FE50010F851482851583A385821485CF
:102630008315740C120A66E5826E7003E5836F6081
:102640000302253C7508017509007808120C9D7479
:1026500002120A807A1A7B051205267402120A30C9
:10266000740C120A307F0E020B5CC082C083906132
:10267000AE7468F0A3746AF090624574FBF0A30432
:10268000F053F4FD43FE029003797401F09061A0D1
:10269000E0643A90619A70191226D974016401704D
:1026A00009C2919003077467801E900307746180CC
:1026B000171226CB740164017009D291900307743C
:1026C000718005900307746A022498743FF0A37424
:1026D0005AF09061A0747FF0227433F0A37455F027
:1026E0009061A0743AF022C082C08375E1F190033A
:1026F0002EE024FE604D14704F1203A690031DE0DF
:10270000F97A1E7B0312047290808B12093D120429
:102710009C9080C712093D12047890032FE0F912B3
:10272000048479011204C090031BE0F8A3E0C824DC
:102730001AF582E438F58374B2F0A37403F07900DB
:102740000224991203AC80B4791280F474F7120A4F
:102750008A1227954402F5D975821E7583031228C3
:102760003E7004E583640370F5900334E0600A78FA
:10277000357903FA122832DAFB75E195900CC6120E
:1027800027A7F0A31227A71228467414F09003037A
:1027900074040228D2900334E02407F5D990031D75
:1027A000E0C4333354C022746A1227B41227B4F041
:1027B000A3740322F0A37403F0A3746A2274F712C3
:1027C0000A8A1227954406F5D975821E758303126D
:1027D000283E7004E583640370F5900334E0600ADA
:1027E00078357903FA122832DAFB900354122798CD
:1027F0004404F5D975821E75830312283E7004E5E2
:1028000083640370F5900354E0600A78557903FA05
:10281000122832DAFB75E195900CC67464F0A3744B
:10282000031228881228467415F0900303740302DB
:1028300028D2888289831228C7A882A983221228D5
:10284000C7E582642422F0A37470F0A374031228F5
:102850007D12288C122873240EF582E438F58374D7
:10286000FFF0A3F0A3F0A31228732414F582E43838
:10287000F58322F090031BE0F8A3E0C822F0900C4F
:10288000D474D0F0A374032212288C22F0A374D045
:1028900012289B12289BF0A37403221228A212284C
:1028A000A222F0A37403F0A374D022C082C083904C
:1028B000031BE0F8A3E0C82406F582E438F583E4BE
:1028C0000224961228CC22E0F5D9A322E0F8A3E056
:1028D000F922F07F01020B5CC082C083E490030BFD
:1028E0007808F0A3D8FC90030B0402249874F21229
:1028F0000A8A8909ECFEEDFF750800890A750B004C
:102900008A0C8B0D780C120CE1020308882A20290E
:102910007B299529D8290A2A212A382A542A6B2A60
:10292000740165096003022A83900C4CE0F88E82E2
:102930008F83E0900C4CF0E8601CE06003022AAB4F
:10294000900282E064026003022AAB900281E0F907
:1029500012027A022AABE07003022AAB900282E0F4
:1029600064016008E064036003022AAB7A017B0023
:10297000900281E0F9120628022AAB740265096010
:1029800003022A838E828F83122E34900C4DE8F03E
:10299000A3E9022A80E9C394204003022A837C1F12
:1029A0007D0079007A507B0C1205F2780A120C9D9A
:1029B000EEFCEFFD7A507B0C1205E67402120A3031
:1029C000E509900C4FF07C507D0CFB7A0190028160
:1029D000E0F9120274022AA3E9C394204003022AF8
:1029E000837C1F7D0079007A8B7B021205F2780AC6
:1029F000120C9DEEFCEFFD7A8B7B021205E6740251
:102A0000120A30E50990028A8076740165097073B4
:102A10008E828F83E0F8C394055068E89002AA8004
:102A20005F74016509705C8E828F83E0F8C3940443
:102A30005051E89002AB8048740665097045750AEC
:102A400006780A120C9D7AAC7B021205E67402121B
:102A50000A3080577401650970298E828F83E0F8EF
:102A6000C39408501EE89002B28015740165097085
:102A7000128E828F83E0F8C394045007E89002B36B
:102A8000F080287508188023C3EA9427EB9400503F
:102A9000177402650970118E828F83E0FCA3E0FD3C
:102AA000120232E9F5088003750802A9087F0602C0
:102AB0000B5C74F4120A8AECFEEDFF7508008A0ABA
:102AC0008B0B780A120CE100030A612BE22AE72A39
:102AD000F82AFD2A0D2B1C2B2B2B302B352B522BA0
:102AE000572B9002838073750A06750B00780A12C3
:102AF0000C9D7C847D02804C900C4C805D900C4D34
:102B0000122E348E828F83E8F0A3E98068900C4FF8
:102B1000122B82120C9D7C507D0C802890028A1210
:102B20002B82120C9D7C8B7D0280199002AA802A38
:102B30009002AB8025750A06750B00780A120C9D71
:102B40007CAC7D02EEFAEFFB1205E67402120A304D
:102B500080299002B280039002B3E08E828F83803E
:102B600014C3EA9427EB9400500E1202388E828F21
:102B700083EAF0A3EBF08003750802A9087F040242
:102B80000B5CE0F50A750B00780A2274F6120A8ACB
:102B9000900282E07037EA4B60089002B4EAF0A33A
:102BA000EBF0E4F508F5097808120C9D7808120C92
:102BB0009D7C007D007B00900283E0FA900281E022
:102BC000F91204E47404120A307900800279117F4A
:102BD00002020B5C74F7120A8AE9900281F09002FB
:102BE00082E4F01202BC9002837401F09002AA7495
:102BF00003F09002ABE4F09002B27407F09002B3DD
:102C0000E4F07F01020B5C74F4120A8A74F6120A73
:102C10001A8A088B09EB54806031900281E0F91226
:102C200006108A0A8B0BAE0AAF0BEE4F60138E8232
:102C30008F83E064D0700312022CEEFAEFFB1205D2
:102C4000FEAA08E5096480FB022CEAEAA2E0400340
:102C5000022CE6900C4CE07003022CDD9002AAE0FE
:102C6000851882851983F09002ABE0C0E0740112F0
:102C70000A66D0E0F0750A06750B00780A120C9D02
:102C80007CAC7D027404120A66AA82AB831205E64C
:102C90007402120A309002B2E0C0E07408120A66B0
:102CA000D0E0F09002B3E0C0E07409120A66D0E010
:102CB000F0AA18AB19900281E0F912026EE9601DCA
:102CC0009002827404F0122CF26012122E2B888271
:102CD0008983E582458360057904120A88E50864E2
:102CE00001FAAB0980047A007B00740A120A3002F0
:102CF0002B7D9002B4122E34E8492274F4120A8A11
:102D00008A828B83A3A3E0F8EA2403FCE43BFD8AD8
:102D1000828B83A3AE82AF83E8601224FE606914C5
:102D20007003022DDC147003022DDC8058E070313A
:102D30007508067509007808120C9D7A847B0212CA
:102D400005E67402120A309002827401F07C507D14
:102D50000C900C4FE0FB7A01900281E0F9120274B2
:102D6000E960069002827404F0122CF26017122EB1
:102D70002BE8FAE9FBEA4B600C900282E0F98A82C8
:102D80008B83120A88022B7DE070488C828D83E051
:102D9000601B7C8B7D0290028AE0FB7A00900281AE
:102DA000E0F9120274E98E828F83F080269002820D
:102DB000E06402601E7A017B00900281E0F9120754
:102DC00000EA4B4C4D700C7A017B00900281E0F9D7
:102DD0001206288E828F83E0708980A9E070847447
:102DE000036870089002827402022D68900C4D12E4
:102DF0002CF5900C4C602AE06029900C4DE0F50811
:102E0000A3E0F509E4F50AF50B7808120C997A01AC
:102E10007B00900281E0F91206EE7404120A308001
:102E200002E4F09002827403022D68E0F583888248
:102E3000122E3422E0F8A3E0F922C082C08390036E
:102E400085E4F090038474FFF0900381F090038098
:102E5000E4F090037FF0900382F0A302332674F431
:102E6000120A8A900382E0F508A3E0F509E5084517
:102E7000097006120388022F48850882850983E0BD
:102E800014600A14600724FE6003022F48E0F91260
:102E900003E88A0A8B0BAE0AAF0BEE65087003EFEE
:102EA00065097003022F458E828F83E06401600301
:102EB000022F481203A01204488A088B098C0A8D3D
:102EC0000B9080AF78081208BE7808120C998E8299
:102ED0008F83A3A312093D12132A7404120A30E946
:102EE00070591204488A088B098C0A8D0B9080BF98
:102EF00078081208BE9080BB780812090C8E828F69
:102F000083A3A3780812092E900303E064027025BE
:102F10008E828F83A3A3780812091F90806F780890
:102F20001208BE9080BB780812090C1230B87808DD
:102F300012092E80061230B8122F4D9003817401B1
:102F4000F0EEFAEFFB1203E27F04020B5C74FFF079
:102F5000A3F0A3F0A3F02274F0120A8AEAFEEBFFBA
:102F6000EE2402F8E43FF988088909EE2406F8E423
:102F70003FF9880A890B8882F583120CB485088290
:102F800085098312093D12042A7402120A30850A47
:102F900082850B83120CB485088285098312093D52
:102FA00012041E7402120A301230B812093D1204C3
:102FB000308E828F83E06440701BEE2412F8E43F71
:102FC000F988828983E0906064F088828983A3E035
:102FD0009060658006906064E4F0A3F0900382EE58
:102FE000F0A3EFF0EE241AF582E43FF583E0F8A3B6
:102FF000E0F5838882120A88906054E41230C2A3FC
:103000001230C2906182E0C2E6F07591BF1230AE1C
:10301000E064017003120466E5E170FCEE2414F52F
:1030200082E43FF583E0F46003E0F5E11230AE7432
:1030300001F0900309E06401706F1204488A088B64
:10304000098C0A8D0B7808120C998E828F83A3A3AA
:1030500012093D1213867404120A308A088B098CF7
:103060000A8D0B908073780C12091F7808790C1266
:10307000078474037808120873E50824F4F508E55A
:10308000093401F50990037BE0600312065EE4F564
:103090000AF50B7808120C997A207B00900302E065
:1030A000F91206EE7404120A307F08020B5CEE245B
:1030B00015F582E43FF58322EE240EF582E43FF518
:1030C0008322122F4FA3F0A3F02274F0120A8A89F0
:1030D0000874FF6508707A900380E054077003025B
:1030E00032647904120400E96401701B900384E0E7
:1030F00064047006A3E0640160067A007B0080042B
:103100007A847B030232687901120400E964017059
:103110001B900384E064017006A3E0640160067AFA
:10312000007B0080047A847B0302326879021204F7
:1031300000E96401701B900384E064027006A3E060
:10314000640160067A007B0080047A847B0302328B
:1031500068900384E065087006A3E0640160067E61
:10316000007F0080047E847F03A908120400E964C4
:10317000017004780180027800E50814600D146085
:103180006A24FE700302320D023264900384E0640C
:1031900002703CA3E064017041E8A2E0502AA378E9
:1031A0000C12091F908077780C1208BE780C120C54
:1031B000998E828F83A3A312093D12132A740412DD
:1031C0000A30E9700302325E7A847B03023268E0DF
:1031D00064047006A3E06401604EE8A2E05006EECD
:1031E000FAEFFB80047A007B00807D900384E0642A
:1031F000047008A3E06401700D802DE06401700686
:10320000A3E064016022E8A2E05059805190038459
:10321000E064017008A3E06401703E800BE064028A
:103220007037A3E064017031E8A2E0509BA3780CF2
:1032300012091F908077780C1208BE780C120C9936
:103240008E828F83A3A312093D12132A7404120ADB
:1032500030E960030231C88005E8A2E05006EEFACA
:10326000EFFB80047A007B000230A974F7120A8A0F
:10327000E9FE900385E0705F7401F0EE900384F046
:10328000120448EAF8EBF9ECFAEDFB900386120918
:103290005590038AE4F0A3F0900392122F4D90030F
:1032A000987401F0A3F090039EE4F0A3F0900380E3
:1032B000E04EF090037FE004F06401600A74806ED9
:1032C000600574406E700A9003827484F0A37403E6
:1032D000F07A847B0380047A007B007F01020B5C20
:1032E000C082C0838A828B83E0F8A3E0F98A828B54
:1032F00083E4F0A3F088828983A3F088828983E045
:10330000F4F8900380E058F090037FE014F070141C
:10331000900382E4F0A3F0900303F0FA900302E03C
:10332000F91206888001F0D083D082020132C08277
:10333000C08390037FE0600A900382E0FAA3E0FB81
:1033400080047A007B0080DFC082C083E9F89003AC
:1033500084E0687005A3E0F98002790080C9E0F993
:1033600080C5C082C08390037F80F374F4120A8A00
:1033700074FC120A1A7E00900C35E4F0900C32F0C6
:103380007F7D7508047509007808120C9D7402127F
:103390000A807A007B00EFF91205207402120A30CD
:1033A0009080B3780812091F8518828519837808E0
:1033B0001207307019900C32E0600FF91206ACEF72
:1033C000F91206AC900C32E48001EFF080188518F9
:1033D00082851983120949E8494A4B7004EFFE803F
:1033E00005EFF91206AC0FEFC3947F4095900C32B5
:1033F000E07026EE7018797D1206A0900C337404EC
:10340000F0A3E4F0900C35E0601979008017F01219
:1034100006B2EEF91206BE800AEE6004F91206A6A4
:103420001206B279010234BB74F7120A8A74FC12D4
:103430000A1AE9FE851882851983E4F0A3F0A374C3
:1034400010F0A3E4F0AC18AD19FAFB1206CA900C08
:1034500035E07005EE900C32F07404120A307F01F2
:10346000020B5C74F4120A8A74FF120A1A8908901B
:103470000C35E0703212052C7E007F00750A017554
:103480000B00780A120C9D7402120A80EEFAEFFB10
:10349000A9081205207402120A3085188285198342
:1034A000E0F46008900C357401F0800B0EEE7001B2
:1034B0000FC3EF940840C5740180027404120A30EF
:1034C0007F04020B5C74F4120A8A74FF120A1A89D0
:1034D000087E007F00750A01750B00780A120C9DAA
:1034E0007402120A80EEFAEFFBA90812052074029A
:1034F000120A30851882851983E0F46007A9081242
:1035000006A6800B0EEE70010FC3EF940840C68034
:10351000A674F4120A8A74FC120A1A7EFC7F0775DC
:1035200008047509007808120C9D7402120A80EED6
:10353000FAEFFB900C32E0F91205207402120A3007
:103540009080B7780812091F85188285198378083A
:10355000120730700512356C50C5EE2404F8E43FB4
:10356000F9900C33E8F0A3E9F00234BBEE24FCFE42
:10357000EF34FFFFC3EE9404EF94002274F4120AB8
:103580008A74FC120A1A8908EAFEEBFF8C091235CC
:103590006C405E750A04750B00780A120C9D74026B
:1035A000120A80EEFAEFFBA9081205207402120A33
:1035B000307402120A66E0FAA3E0FB8518828519CE
:1035C00083A809E0687002A3E0700AEEC39AFAEFDC
:1035D0009400FB8020EB548070B4EA2404F8E43BB0
:1035E000F9C3EE98EF994009C3EE9AFEEF9BFF8076
:1035F0009D7A007B000234BB74EA120A8A74F812C6
:103600000A1A8910750DFF747D65107005750C7EA2
:103610008003750C7D750A04750B00900C33E02453
:10362000FCFEA3E0023702851882851983A3E054CB
:103630008060030236EC851882851983A80DE06846
:103640007002A3E070030236EC851882851983E0CE
:10365000F50DFCAA0AAB0BA90C1206B88B09EA45BA
:103660000960030236EC7402120A66E0F8A3E0F97E
:10367000EEC398F508EF99F50988148915750E00C1
:10368000750F007512047513007812120C9D7406E4
:10369000120A80E508250EFAE509350FFB900C3279
:1036A000E0F91205207402120A307404120A80E54F
:1036B0000A250EFAE50B350FFBA90C1206CAE50E1A
:1036C0002404F50EE4350FF50FC3E514950EE5154A
:1036D000950F50AF7402120A66E02404F8A3E03498
:1036E00000F9E50A28F50AE50B39F50B7402120A10
:1036F00066E0F8A3E0F9C3EE98FEEF99FFEE24FC34
:10370000FEEF1235714054900C35E0706875080476
:103710007509007808120C9D7402120A80EEFAEF07
:10372000FBA9101205207402120A3085188285192F
:1037300083E0F47003A3E0F46003023627740212FE
:103740000A66E0F8A3E0F9548070B2E82404F85067
:103750000109C3EE98EF995093801AA90C1206A0A4
:10376000900C35E0700A900C33E50AF0A3E50BF0FD
:10377000A9101206A67408120A307F0E020B5C74A0
:10378000F0120A8A74FC120A1A890B8A088B09EC57
:10379000FEEDFF7414120A66E0F50A8012E50824B3
:1037A00004F508E43509F509EE2404FE50010F85FF
:1037B0000A0C74FF250CF50A04603D750E04750FA4
:1037C00000780E120C9D7402120A80AA08AB09A997
:1037D0000B1205207402120A30780E120C9DEEFCBA
:1037E000EFFD7402120A781205EC7402120A30E935
:1037F00070AB900C357401F07404120A307F08022B
:103800000B5C74F0120A8A890C8A088B09ECFEEDB5
:10381000FF900C35E0704D750A01750B00780A12A7
:103820000C9D8A0A8B0B7402780A1209F8890EF52E
:103830000F7409780E120A07E50A2400FAE50B3521
:103840000FFB1205267402120A30750A01780A125B
:103850000CA1EEFCEFFDAA08AB09A90C1206C4747A
:1038600001120A308097C082C08312069AE9700460
:10387000790180027900D083D082020132C082C0F7
:103880008312072A0239B874F7120A8A7409120AD5
:1038900066E0F8A3E0F9801C8C828D83E08A828B3D
:1038A00083F08C828D83A3AC82AD838A828B83A3C9
:1038B000AA82AB83E8FEE9FFEE24FF18EF34FFF99C
:1038C000EE4F70D40239CFEEFAEFFB7F06020B5CAD
:1038D00074F5120A8AECF8EDF9740B120A66123BC1
:1038E0000EAC08AD09EC24FFF508ED34FFF509EC4A
:1038F0004D602CEAFCEBFD8C828D83A3AA82AB8306
:10390000E8FEE9FF8E828F83A3A882A9838C828D33
:1039100083E0FC8E828F83E06C60C6790080027940
:10392000017F03020B5C74F6120A8AE9FE8C088D93
:10393000097808120C9DEEFC7D0012072474021217
:103940000A30023B0974F6120A8AEAFEEBFFEE4FD8
:10395000603DEE2405FAE43FFB1206708A088B09ED
:10396000A808A909E849602788828983E4F0A3F0C0
:1039700088828983A3A3EEF0A3EFF088828983A3D2
:10398000A3A3A374FFF0E82405FAE439FB80047ACA
:10399000007B00023B09C082C083EA4B70047905BA
:1039A0008016123A3760047904800DEA24FBFAEBA2
:1039B00034FFFB1206767900D083D0820201327484
:1039C000F7120A8A7C0012060A8004A2E092AF7FF6
:1039D00001020B5C74F7120A8AE9FEECFFEA4B6005
:1039E000269080D0E0F8EEC39840071205FE7903D8
:1039F0008043EA24FBF582EB34FF123BB3700512DF
:103A00003A3760071205FE7905802AEEF074016FDF
:103A1000700DEAFCEBFD7ADC7B0312061C800BEADE
:103A2000FCEBFD7ADC7B031206167A007B80EEF954
:103A300012062879008098EA24FFF582EB34FFF51E
:103A400083E0F42274F2120A8A890A750C00750D5B
:103A5000007E007F00A2AFE433F50BC2AF9003DC21
:103A60008015EE4F700685080C85090DE50824FBCE
:103A7000F582E509123BAE123B0EE50845096023CD
:103A8000E50824FFF582E509123BAEE0650A70D235
:103A9000EE4F7006AE08AF0980D27A007B80120626
:103AA00028800B7A007B8012062EEE4F6015780C72
:103AB000120C9DEEFCEFFD7ADC7B031206227402F1
:103AC000120A30E50BA2E092AF0238C7E0FAA3E099
:103AD000FB2274F7120A8AA2AFE433FEC2AF123B94
:103AE000A8E4F0A3F0800CE824FBF8E934FFF9E83F
:103AF000FAE9FB8A828B83123BB570EB8A828B8357
:103B0000ECF0A3EDF0EE0239CB7F02020B5CE0F5A6
:103B100008A3E0F5092274F7120A8AA8A8C2AF8A9E
:103B2000828B83E0FEA3E0FF123BA8EEF0A3EFF050
:103B30008A828B83ECF0A3ED123D1D0239CD74F522
:103B4000120A8AA2AFE433F50AC2AFEC24FBF8ED07
:103B500034FFF9E8FEE9FF8E828F83E0F8A3E0F9F5
:103B60008A828B83123B0EEC65087003ED65097049
:103B7000068A828B838012740B120A66E0FAA3E035
:103B8000CA24FBF582EA123BAEE8F0A3E9F08E828C
:103B90008F83E4F0A3F0EC24FF123BAB74FFF0E55D
:103BA0000AA2E092AF023921EC24FBF582ED34FF4A
:103BB000F58322F583E0F8A3E0F9E8492274F712CF
:103BC0000A8AE9FE9080D0E0F8EEC398502DACA8A8
:103BD000C2AFEE29F8E433F9900C30E028FDA3E001
:103BE000398D82F583E04AF0A3E04BF0ECA2E7E4E4
:103BF00033F8ECA2E792AF7900800279030239CF63
:103C000074F7120A8AE9FF9080D0E0F8EFC3985069
:103C100027AEA8C2AFEAF4FCEBF4FDEF29123D2871
:103C2000F583E05CF0A3E05DF0EEA2E7E433F8EEAC
:103C3000A2E792AF7900800279030239CFE9F874E4
:103C4000FF687006C2AF790080027907020132C0B6
:103C500082C0831206649003DCE4F0A3F01206D65F
:103C600012067C12069412066A79000239B8C082E4
:103C7000C08312064680FB74F4120A8A750800128B
:103C8000065E12051AA808E828123D28123BB370F8
:103C90000D05089080D0E0F8E508C39840E79080D3
:103CA000D0E0F8E508C398506CACA8C2AFAE08EEFF
:103CB0002EFEE433FF900C30E02EF8A3E03FF988AD
:103CC000828983123ACC88828983E4F0A3F0ECA243
:103CD000E7E433F509ECA2E792AFE508900CE1F0D8
:103CE000F974332EF58274803FF583123D38120A41
:103CF00088900CE174FFF0A8A8C2AF900C30E02EC1
:103D0000F9A3E03F8982F583E04AF0A3E04B123D3E
:103D10001D92AF800312068E7F04020B5CF0E8A2B6
:103D2000E7E433F9E8A2E722F8E433F9900C30E055
:103D300028FAA3E0398A8222E0F8A3E0F58388829A
:103D40002274F7120A8A900C38E4F0A3F0A3F0A3CF
:103D5000F07F01020B5C74F0120A8AE9FE8A088B7C
:103D6000091206E27410120A66780C12091FEA4B57
:103D7000600E8A828B83A3A3780C12092E023E0167
:103D80007A0D7B00120670EA4B6072EE8A828B839A
:103D9000A3A3A3A3A3A3A3A3F08A828B83A3A3A318
:103DA000A3A3A3E508F0A3E509F08A828B83A3A36C
:103DB000780C12092E8A828B83E4F0A3F0F508F5C3
:103DC00009F50AF50B8A828B83A3A3A3A3A3A3A35C
:103DD000A3A3780812092E124148900C366017E010
:103DE000FCA3E08003E8FCE9FD8C828D8312414B4B
:103DF00070F38C828D83EAF0A3EBF080047A007B71
:103E0000007F08020B5CC082C083900C3680048C5B
:103E1000828D83E0FCA3E0FDEC4D60238C828D83DA
:103E2000A3A3A3A3A3A3E06A7003A3E06B70E08C39
:103E3000828D83A3A3A3A3A3A3A3A3E06970D0EC63
:103E4000FAEDFB023F4EC082C083EA4B600E8A82CD
:103E50008B83A3A3A3A3A3A3E4F0A3F0023F4E7418
:103E6000F6120A8AAEA8C2AF740A120A66120CB021
:103E70001206DC7404120A30EEA2E7E433F8EEA274
:103E8000E792AFEA4B60047900800279087F020272
:103E90000B5C74F2120A8AA2AFE433FEC2AF740E56
:103EA000120A66780812091F7808120C991206DCAB
:103EB0007404120A30EA4B60128A828B83A3A3A394
:103EC000A3A3A3A3A3A3780812092EEEA2E092AFA6
:103ED000EA4B60047900800279087F06020B5C746B
:103EE000F4120A8AA2AFE433F508C2AF1206E28ADE
:103EF0000A8B0BAE0AAF0BEE4F60031206E8E50823
:103F0000A2E092AFEE4F60047900800279067F0450
:103F1000020B5C74F2120A8A750800750900750AB2
:103F200000750B00A2AFE433FEC2AF1206E28A8234
:103F30008B83E58245836007A3A3780812091FEEEF
:103F4000A2E092AFAA08AB09AC0AAD0B808CD0837B
:103F5000D08202013274EB120A8A74FC120A1A8AA5
:103F6000088B098C0A8D0B851882851983780812B5
:103F7000092EA9A8C2AF900C3878081208D1E9A27E
:103F8000E7E433FAE9A2E792AF1241487003024135
:103F900038900C36E0FEA3E0FF7510007511007537
:103FA0000A00750B00A2AFE433F514C2AFEE240291
:103FB000F508E43FF5097402120A6612414B7020BD
:103FC0007401120A66E07018851882851983E0F87A
:103FD000850882850983E0C3984005E0C398803D49
:103FE000850882850983780C12091F851882851936
:103FF00083780C1207555018851882851983780C20
:1040000012091F850882850983780C1208F8800E32
:10401000850882850983E4F0A3F0A3F0A3F0EE24E1
:1040200006F512E43FF513EE2404F50EE43FF50F18
:1040300085088285098312414B7052850E82850F57
:104040008312414B7052EE2409F50CE43FF50D85C7
:104050000C82F583120949E8494A4B605185128266
:10406000851383124142EA4B60448E828F83A3A35F
:10407000A3A3A3A3A3A3E0F9120628850C82850DB0
:1040800083120949850882850983120955850882AA
:1040900085098312414B700B850E82850F83124177
:1040A0004B600B85128285138312414B70258E82E3
:1040B0008F83E0F8A3E0F9E51045117005900C3608
:1040C0008006851082851183E8F0A3E9F08E0A8FBF
:1040D0000B80048E108F118E828F83E0FEA3E0FF91
:1040E000E514A2E092AFE50A450B6045850A82859A
:1040F0000B83A3A312414B7031850A82850B83A3E6
:10410000A3A3A312414B7022850A82850B83A3A32C
:10411000A3A3A3A3124142850A82850B83A3A3A371
:10412000A3A3A3A3A3E0F9120628AA0AAB0B1206C5
:1041300076EE4F6003023F9F7404120A307F0D0237
:104140000B5CE0FAA3E0FB22900C36E0F8A3E0F968
:10415000E8492274F0120A8A1241486045900C36F0
:1041600012414275088E7509C2750AF5750B288AC9
:10417000828B83A3A3780C12091F7808790C12078D
:1041800045500C850C08850D09850E0A850F0B8A94
:10419000828B83E0F8A3E0F9E8FAE9FBEA4B600ED2
:1041A00080CD750800750900750A00750B00AA0816
:1041B000AB09AC0AAD0B023E01A2AFE433F8C2AFCB
:1041C0005394FEE594A2E240FAE8A2E092AF75A70C
:1041D0000075A100759CFF75C30075A20075A30052
:1041E00075A40075A50075A60075C31175A20075AC
:1041F000A30075A40075A50075A60075C33375A24C
:104200000075A30075A40075A50075A60075C344CC
:1042100075A20075A30075A40075A50075A60075AC
:10422000C32275A22075A34E75A40075A50075A6BE
:1042300000759408A2AFE433F8C2AF439401E5944B
:10424000A2E250FAE8A2E092AF439402020132A245
:10425000AFE433F8C2AF5394FEE594A2E240FAE82B
:10426000A2E002446DA2AFE433F8C2AF439401E58B
:1042700094A2E250FA80E8E9A2E7E433F8E9A2E781
:1042800092AF802575C303851882851983E0F5A256
:10429000740122E9A2E7E433F8E9A2E792AF8518B6
:1042A00082851983E0FAA3E0FB74020243CAF59CFD
:1042B000E9A2E7E433F8E9A2E792AF0243C8C0827B
:1042C000C08374FC120A1A12438575C333124379F2
:1042D000120A661242F4120A66E0F5A67404120A83
:1042E00066E0F5A27405120A66E0F5A375A1BF4366
:1042F000A74080BCE0F5A5740222124431A9A8C2EF
:10430000AF22C082C08374FE120A1A12432575A11F
:10431000FD124284120A66E0F5A3E59C54F04401C4
:10432000F59C02427712432C53A7FD228518828503
:104330001983EAF0A3EBF0A9A8C2AF22C082C08320
:1043400074FC120A1A12438575A1BF439C0F75C3F2
:1043500033124379120A661242F4120A66E0F5A695
:104360007404120A66E0F5A27405120A66E0F5A369
:10437000E59C54F044080242AE851882851983E01A
:10438000F5A47401221242FA53A7BF22E5A48518AE
:1043900082851983F0E5A5C0E07401120A66D0E0B9
:1043A000F0E5A6C0E07402120A66D0E0F0740312D1
:1043B0000A66E4F0E9A2E7E433F8E9A2E792AF8500
:1043C000188285198312093D7404120A30D083D0F3
:1043D0008202013274F4120A8A74FC120A1A12441C
:1043E00031A2AFE433F9C2AF53A7DF75A1DF9080EC
:1043F000B7780812091F8518828519837808120773
:10440000307005439CF0801A75C340124379120A3C
:10441000661242F4120A66E0F5A6E59C540F445079
:10442000F59CE9A2E092AF7404120A307F04020BFB
:104430005C851882851983EAF0A3EBF0A3ECF0A366
:10444000EDF022A9A8C2AF53A7098015A9A8C2AF51
:1044500053A709759CFF8009A9A8C2AF439C0F8090
:104460000375A109E9A2E7E433F8E9A2E792AF02F4
:104470000132A3A3A3E4F0E8A2E7E433F9E8A2E75A
:1044800092AF0243CDC082C08374FC120A1AA9A85D
:10449000C2AF75C300E5A202438CC082C083A8A846
:1044A000C2AF75C300E5A28A828B83A3A3A3A3F046
:1044B000E5958C828D83F0E5A38A828B83A3A3A3E9
:1044C000A31244E1A3A3A3E4F0E5968C828D83A319
:1044D000F0E5978C828D83A3A3F08C828D830244B8
:1044E00072A3F0E5A48A828B83F0E5A5A3F0E5A68C
:1044F0008A828B83A3A3F08A828B8322C082C083AB
:1045000074FC120A1AA9A8C2AFE59585188285190C
:1045100083F0E596C0E07401120A66D0E0F0E597FA
:104520000243A3C082C08374FE120A1AA9A8C2AFB4
:10453000A8C375C300E5A2E5A4851882851983F098
:10454000E5A5C0E07401120A66D0E0F088C302421B
:1045500093C082C0839003D6E4F0A3F012056ED01E
:1045600083D08202013274EC120A8A8A0C8B0D8984
:104570000E9003D6E0F8A3E0F9E84970187A117BB1
:10458000001206709003D6EAF0A3EBF079017A00EE
:104590007B80120568AA0CAB0D1205E0EAFEC394FD
:1045A0001140027E108E088E107511007401650E88
:1045B000702B7810120C9DAC0CAD0D9003D6E0FA68
:1045C000A3E0FB1205E67402120A309003D6E02E37
:1045D000F8A3E034008882F583E4F0807F9003D66E
:1045E000E0FAA3E0FB1205E0EAF50A2E2402FA7BCA
:1045F000001206708A128B13AE12AF13EE4F605C7E
:10460000850A127513007812120C9D9003D6E0FCF7
:10461000A3E0FD1205E67402120A30A80AEE28F59E
:1046200082E43FF5837420F0050A7810120C9DACEB
:104630000CAD0DEE250AFAE43FFB1205E6740212FA
:104640000A30E50A2508F8E43400F9EE28F582EF8F
:1046500039F583E4F0EEFAEFFB120676AA0CAB0D07
:10466000A90E1205987F0C020B5CC082C08353F325
:10467000FED28043FD0153F4FDD29143FE0253F478
:10468000FBD29243FE0443F10243F42043F440433F
:10469000F48075FB8075F80075FC2F75FA00C291E7
:1046A0007A987B3A12059ED2917A0F7B0012059E72
:1046B0007915120574790F120580790E1205747937
:1046C00025120574791C1205747A087B5212059E16
:1046D00012058612058C792912057402455FC29273
:1046E000C28053F8F989F9A2F950FCA2F950FC00F4
:1046F000000000D292020132C292D28053F8F989AE
:10470000F9A2F950FCA2F950FC0000000080E4740A
:10471000F7120A8AE9FE7950120574EEF912057A49
:10472000801374F7120A8A79801205747E3079201A
:1047300012057ADEF97F01020B5C74F7120A8A799E
:10474000C01205747E40790012057ADEF980E674A5
:10475000F7120A8AEBFEEAC39410501274FF29C4C0
:1047600054F02A4480F9120574EEF912057A80C5D6
:1047700074F5120A8A8909EAFEEBFF1205E0EAF5F0
:104780000A75080080188E828F83E0FBAA08A909A9
:104790001205928E828F83A3AE82AF830508E5084F
:1047A000C3950A40E1850A08800B7B20AA08A90965
:1047B0001205920508E508C3941040EE7F03020B32
:1047C0005C802000000000000000000000000000ED
:1047D00000000000000000000000000000000000D9
:1047E000000000EAF8EBF9E824FF1AE934FFFBE8DF
:1047F0004970D0020132C082C083C3EA9427EB948F
:1048000000501674FF6C700374FF6D600C12483A10
:10481000ECF0A3EDF079008002790202494EC082EB
:10482000C083C3EA9427EB9400500812483A124917
:104830005580047AFF7BFF02494EEA2AFAEB33FBEC
:1048400074702AF582740C3BF5832274F7120A8A7D
:10485000E9FEEAFF7C107D0079007ABB7B0212053D
:10486000F2EE900C6FF0EF9002B6F01202E0E9F970
:104870009002BB70057401F08004E4F079127F01AE
:10488000020B5C74F6120A8AE9FF7E00701EEA4B86
:10489000601A7508068E097808120C9DEAFCEBFD7B
:1048A0007AC27B021205E67402120A309002BBE063
:1048B000640170147E01EF70087402F012032E8000
:1048C00007E4F0EFF912025CEEF97F02020B5C7470
:1048D000F6120A8A7E00EA4B603F8A828B83E0F9F7
:1048E0007021A3E0F5088A828B83A3A3E0FDE5088D
:1048F0009002C8F0A3EDF08A828B83A3A3A3E0907B
:1049000002CAF09002BBE06402700E7E01E97004FE
:1049100074038001E4F012025C80ADC082C083E9C0
:10492000F87900EA4B6025E86022EA2405F582E484
:104930003BF5837401687005E044C0800CE0543F8F
:10494000F07403687004E0D2E6F079018000D0834F
:10495000D082020132E0FAA3E0FB2274F4120A8A48
:104960008908900C6FE0F4604F7A0A7B001205F81A
:104970008A0A8B0BAE0AAF0BEE4F603C124A817471
:1049800008F09002B7E08E828F83A3A3A3F0750A8C
:1049900006750B00780A120C9D7CCB7D02EE240478
:1049A000FAE43FFB1205E67402120A30EEFAEFFB5E
:1049B000900C6FE0F91206049002BAE06401703ABC
:1049C0009002DA1249FFE8496019E0F5838882A372
:1049D000A3A3A31249FF88828983E58245836003EC
:1049E000120A889080CB120CB07A047B009002D916
:1049F000E0F91206F47404120A307F04020B5CE042
:104A0000F8A3E0F92274F4120A8A8908900C6FE086
:104A1000F4606B7A0C7B001205F88A0A8B0BAE0AE5
:104A2000AF0BEE4F6058124A81E4F0750A06F50BA1
:104A3000780A120C9D7CC27D02EE2403FAE43FFB4F
:104A40001205E67402120A309002C81249FF8E82E3
:104A50008F83A3A3A3A3A3A3A3A3A3E8F0A3E9F035
:104A60009002CAE0C0E0EE240BF582E43FF583D06B
:104A7000E0F0EEFAEFFB900C6FE0F9120604024949
:104A8000FA8E828F8374D0F0A3E508F08E828F8334
:104A9000A3A32274EE120A8A8A088B09890B8C0E52
:104AA0008D0F9003A3E070099003A5E07003024B03
:104AB000609002DEE06003024B60890C750D00E936
:104AC0002407FAE43400FB1205F88A108B11AE10AB
:104AD000AF11EE4F7003024B7174186508700474C7
:104AE000206509600C7417650870047420650970EE
:104AF000109003A5E0600AF50A8E828F837492807D
:104B00000C9003A3E0F50A8E828F837491F0A37456
:104B10000E124D227401124D2AE508F0A3E509F0AA
:104B2000EE2405F8E43FF9E8FAE9FBEE2407F8E49F
:104B30003FF98A828B83E8F0A3E9F0780C120C9D90
:104B4000AC0EAD0F8A828B83E0FAA3E0FB1205E680
:104B50007402120A30EEFAEFFBA90A120604801161
:104B6000780E120C9DAC0B790E12031C7402120A03
:104B7000307F0A020B5C74F2120A8A89098A0A8B56
:104B80000B8C0874072CFA74FF65096004780380A5
:104B9000027802E82AFA7B001205F88A0C8B0DAE27
:104BA0000CAF0DEE4F7003024C918E828F83740117
:104BB000F0A374FFF0EE2402FAE43FFBEE2404F8C5
:104BC000E43F124C96E509124CFCE02402F8A3E005
:104BD0003400F9890DE50BF9740E120A66124CC106
:104BE00074FF6509602E740325088882850D831281
:104BF0004CFC124CC7124D0CE50AF0124D19E9F0AD
:104C000085080A750B00780A120C9D8A828B83E056
:104C100024068063740225088882850D83F08C82C7
:104C20008D83E0C0E08A828B83124CB2D0E0F08C9E
:104C3000828D83A3E0C0E0124D0CD0E0F08C828D19
:104C400083A3A3E0C0E0124D19D0E0124CFC124C3B
:104C5000EE124CFA124CE2E9F0E50824FDF50AE404
:104C600034FFF50B780A120C9DEC2403FC50010D67
:104C70008A828B83E02408FAA3E03400FB1205E665
:104C80007402120A30EEFAEFFB9003A1E0F912066B
:104C9000047F06020B5CF98A828B83E8F0A3E91299
:104CA0004D00124CCE8A828B83124CAD22124CD511
:104CB000A322124CB622124CBA22124CD9A3A3A39F
:104CC00022E0FCA3E0FD22124CB67401F022124C4B
:104CD000D57404F022124CD922E0F8A3E0F58388C1
:104CE0008222124D062407F582E438F58322124D04
:104CF000062406F582E438F58322E50A124D0022E7
:104D0000F08A828B8322E0F8A3E0C8228A828B8318
:104D1000124D1422124CBAA3228A828B83124D1494
:104D2000A322F08E828F83A3A322124D22A322748A
:104D3000F0120A8A75E18112047EE9700890032F4F
:104D4000E0F91204847901120400E96401600302AD
:104D50004DEF900375E0F8A3E0F9E8496006124EC4
:104D60008C120628900333E06401705B124ED74426
:104D700006F5D975821E758303124EA77004E5836C
:104D8000640370F5900334E0600A78357903FA1211
:104D90004E9ADAFB900354124EDB4404F5D9758227
:104DA0001E758303124EA77004E583640370F590AB
:104DB0000354E0600A78557903FA124E9ADAFB75CB
:104DC000E195900333E4F01203BE124EEA1208BEDE
:104DD000124EB01208AB9080BB780C12090C8A827C
:104DE0008B83780C12092E124F157415124EC412B3
:104DF00003DC7F08020B5C74F0120A8A75E18112F1
:104E0000047EE9700890032FE0F9120484790112FE
:104E10000400E964017072900375E0F8A3E0F9E81A
:104E2000496006124E8C120628900333E06401702C
:104E300030124ED74402F5D975821E758303124E87
:104E4000A77004E583640370F5900334E0600A788A
:104E5000357903FA124E9ADAFB75E195900333E443
:104E6000F01203BE124EEA1208BE124EB01208AB88
:104E70009080BB780C12090C8A828B83780C120903
:104E80002E124F157414124EC4024DEF900375E0AC
:104E9000FAA3E0FB900374E0F92288828983E0F5AD
:104EA000D9A3A882A98322E0F5D9A3E582642422AC
:104EB00090032CE0F508A3E0F509E4F50AF50B787A
:104EC0000C790822124F45241AF582E438F58374D0
:104ED000B2F0A37403F02275E191A3E02407F5D9A1
:104EE00090031DE0C4333354C022E9FC90031BE05F
:104EF0002402F8A3E03400F9E8FAE9FB8A828B8304
:104F0000EC75F0118485F00885080CE4F50DF50EBC
:104F1000F50F780C2290031BE0F8A3E0C82406F5F7
:104F200082E438F583E4124F43240EF582E438F529
:104F30008374FFF0A3F0A3124F432414F582E438E6
:104F4000F58322F0A3F090031BE0F8A3E0C822C091
:104F500082C08353BFEF7901120400E96401700C31
:104F60007A1B7B031203F490032BE4F075E1F1123A
:104F700003DCD083D082020132C082C08312046C71
:104F800012046602519DC082C0839061B1E0C2E00C
:104F9000F0E04403F0906188E0640470F802519DF1
:104FA000C082C0839061C0E0FAE4F0F8F9E8240020
:104FB000F582E93460F583E4F008E8700109C394F0
:104FC00080E9940140E7EA9061C0F090618A740141
:104FD000025198C082C0838A828B83E0906016124F
:104FE00050E1A3E090601712501190601812501A0F
:104FF00090601912501F90601A12502490601BF09C
:10500000E99060157005E0C2E08003E0D2E0025153
:105010009CF08A828B83A3A3E02212502FE02212FD
:10502000502AE02212502AA3E02212502FA322F08D
:105030008A828B83A3A3A32274F0120A8AEA906067
:1050400005F0EBA3F0ECA3F07F08020B5CC082C07C
:1050500083906001E00250BDC082C0837407599004
:10506000600102519CC082C083740169906003702A
:1050700005E0D2E08003E0C2E002519CC082C08320
:10508000906003E054F94902519CC082C083906053
:1050900061E00250BD74F0120A8AEA9061951251E3
:1050A0002E025046C082C0839003A0E4F09060229C
:1050B000F0A3F0A37830F0A3D8FC02519DF902517F
:1050C0009DC082C083906014E054FCF0E04902511E
:1050D0009CC082C083906009E402519C9061C074BE
:1050E00001F08A828B8322C082C0837A007B60E9D0
:1050F00070027A331250DCE4F0A3F0A3F09061C0A8
:1051000002519CC082C083E990600202519CC0821F
:10511000C083E99060027005E0D2E38003E0C2E35F
:1051200002519CC082C083E99061C602519CF0EBA1
:10513000A3F0ECA3F0ED22C082C083E960171460F5
:105140001C14601E14602314602514602A1460333C
:1051500014603C80419061E9E054FC80389061E942
:10516000801C9061E9E0C2E0802B9061E9801B9097
:1051700061E9E0C2E1801E9061E9E0C2E1F0E0D2C5
:10518000E080129061E9E0C2E0F0E0D2E1800690B8
:1051900061E9E04403F08005F0A3F0A3F0D083D0F0
:1051A00082020132C082C083900C24E4F0A3F0900C
:1051B0000C267426F0A37404F09004267448F0A31F
:1051C0007402F090066EF0A37480F0A374B4F0A3A0
:1051D0007405F0D083D08202013274F6120A8A7A02
:1051E000017B00120670AEA8C2AFEA24FEF8EB34D1
:1051F000FFF9900C26E8F0A3E9F0120676900C284F
:105200007401F0EEA2E7E433F8EEA2E792AF7F027A
:10521000020B5C74F2120A8A7C007D007E00EA2494
:1052200002FAE43BFBA2AFE433FFC2AF900C28E0EC
:105230006008EA9411EB9400500A900C26E0F8A361
:10524000E0F980047870790688828983E0F508A304
:10525000E0F509548060057E000252F0EEA2E050B5
:105260007C8C828D83E0F50AA3E0F50B5480F50D6C
:10527000E50A2508F508E50B3509547FF509E50D24
:105280004509F5098C828D83E508F0A3E509F05402
:105290007FF509C3E5089AE5099B4054ECF8EDF960
:1052A000E849700302535E88828983E0FCA3E054DE
:1052B0007FFDECC39AFCED9BFDC3EC9404ED9400E0
:1052C000405DE82AF582E93BF583ECF0A3EDF0EBD5
:1052D0004480FB88828983EAF0A3EB804AE5095485
:1052E0007FFDC3E5089AED9B50B67E01E8FCE9FD21
:1052F00088828983E0F508A3E0547FF509E8250852
:10530000F8E93509F988828983E0F508A3E0F50911
:10531000E5084509600302524878007900803F881B
:10532000828983A3E04480F0900C28E06029900CEF
:1053300026E0FAA3E0FBE86A7002E96B7019888244
:105340008983E0FAA3E0547FFBE82AFAE93BFB906B
:105350000C26EAF0A3EBF0E82402F8500109EFA2D2
:10536000E092AFE8FAE9FB7F06020B5CC082C083E3
:10537000EA24FEF8EB34FFF9A2AFE433FCC2AF88B5
:10538000828983A3E0547FF0900C26E0FAA3E0FB2F
:10539000E89AE99B5008900C26E8F0A3E9F0ECA20B
:1053A000E092AF0251D3C082C083E9900CC5025590
:1053B0008974F7120A8AE99002D9F01204DE7F019B
:1053C000020B5C74F4120A8A8A088B09EB54806021
:1053D000799002D9E0F91206108A0A8B0BAE0AAF57
:1053E0000BEE4F605C8E828F83E064917039A3E096
:1053F00024F2602924D0702F750A018E828F83A336
:10540000A3E06402700F12557A600D12548E60088A
:10541000120A888003750A00850A0B80061202D4DE
:10542000E9F50BE50B7013900CC5E0F4600CEEFA97
:10543000EFFBE0F9120604E96007EEFAEFFB120554
:10544000FEAA08E5096480FB803FEAA2E05017123B
:10545000557A600C12548E60077A007B00120A881D
:10546000E5086401801A5402601B9002DA12557D2F
:10547000600A12548E60057901120A88E5086402F8
:10548000FAAB0980047A007B007F04020B5C1255A2
:1054900063A3A3125559E5824583227900020132A4
:1054A00074F4120A8A7E018A828B83A3A3A3E0F597
:1054B00008A3E0F50985080AF50B780A120D270103
:1054C0000008200A203B550700091003550220F070
:1054D000540520E75406203B550B2024550C201F73
:1054E000550E2054555255125569F91202568064D2
:1054F0008A828B83A3A3A3A3A3E0FAA3E0FB1202F7
:105500004A804B8A828B83A3A3A3A3A3125559A3DA
:10551000AA82AB8388828983E0F9120244802F1229
:105520005569603012557A602B125563125493609E
:1055300023EAFCEBFDAA08AB0980109002DA1255B1
:105540007D60111255631254936009120A88E9FEB6
:1055500080027E00EEF9025489E0F8A3E0F9888227
:10556000898322E0F5838882228A828B83A3A3A386
:10557000A3A3E0F8A3125563E0229002DCE0F8A3B5
:10558000E0F9E84922EAF0A3EBF0D083D0820201EF
:1055900032C082C0839002DA80EB74F0120A8A74FF
:1055A000F8120A1A8A088B098C0A8D0B908093785E
:1055B00008120765500C75084075099C750A00753E
:1055C0000B00AC18AD197404120A7812103312577C
:1055D000077065851882851983780812091F12578C
:1055E0000770030256789003DA7401F09003D974BF
:1055F00002F09080977808120765400812570760FC
:10560000030256FDC2AFE51A70030256FB9003D9A0
:10561000E0F91211C2E960030256FB1205561205A9
:10562000AA125707607D90809B7808120765505E2C
:1056300090809F120CB0805B740C780812088C90DC
:1056400080A3780C12091F7808790C1208048518B9
:1056500082851983120949E8494A4B601B851882E3
:105660008519837808120755500E8518828519838D
:10567000780812091F0255E69003DAE4F012570782
:1056800060030255EC9003D97403F00256047808C5
:10569000120C997408120A6612093D1205C27404AC
:1056A000120A3053BEFC9003D9E042BEE5ADA2E041
:1056B00050FA751A0185A808AFB8AE9A53A82053BE
:1056C000B820539A12D2AF1205B69003DAE0640103
:1056D0007006A2C74002E4F08508A88FB88E9A90A1
:1056E00003D9E0640370047901800279009003DA41
:1056F000E0FA12125B1205B012055CD2AF74081208
:105700000A307F08020B5CE5084509450A450B2273
:1057100074F4120A8A74FC120A1A85188285198395
:10572000EAF0A3EBF0A3ECF0A3EDF0C2AD7410121D
:105730000A66780812091F9080A778081208BE85AB
:10574000188285198378081208D17402120A66E05B
:10575000F5977401120A66E0F5968518828519831B
:10576000E0F595C2C7D2AD7404120A307F04020B73
:105770005C02013274F7120A8A74FC120A1AE99068
:105780000C3CF07401120A667401F004120A66E41B
:10579000F0A3F08518828519837402F014120A8030
:1057A00079017A027B0312020E7402120A807902D6
:1057B0007A037B0312020E7CE47D0C790C7A057B64
:1057C0000312020E7CF07D0C791B7A047B0312021B
:1057D0000EAC18AD1979017A067B0312020E7CA07B
:1057E0007D007A067B001202327CA07D007A077B66
:1057F000001202327CA07D007A087B001202327C0B
:10580000A07D007A097B0012023279017A237B8025
:105810001205687A017B00900C3CE0F912062874AE
:1058200004120A307F01020B5C74F6120A8AEAFE47
:10583000EBFF54806016900C3CE0F9120610EA4B26
:1058400060031205FEEEFAEF64808011EEA2E050D4
:105850000F7A0B7B0D12021AEE6401FAEFFB800443
:105860007A007B007F02020B5C74F7120A8A74E9EB
:10587000120A1AE914601514700302590B1470030C
:1058800002591314700302591B025923AC18AD19A5
:105890007A017B031202149080127406120A80743B
:1058A0001112096E900C3D7430F0A37478F07A3FB9
:1058B0007B0C7406120A66A882A9837F06E824FF7F
:1058C00018E934FFF988828983E0C4540FFC740618
:1058D000120A66125931F088828983E0540FFC74F1
:1058E00006120A66125931A3F0EA2402FA50010B9B
:1058F0001FEF70C98A828B83E4F079027A3D7B0CBA
:1059000012056879037A417B80801E79037A4D7B8A
:1059100080801679037A617B80800E79037A697BB7
:1059200080800679037ACF7B80120568741702584D
:1059300021E5822CF582E43583F583E08A828B832E
:1059400022C082C08374F9120A1A7401120A66AA6C
:1059500082AB831203461259FC79077A097B101235
:10596000031679007407025A3874F7120A8A74FF12
:10597000120A1A740F120A661259B7120CA1740F88
:10598000120A661259B7120CA1740E120A66120C92
:10599000B4740F120A661259B7120CA1740F120ACE
:1059A000661259B7120CA112034C7406120A301277
:1059B0005A0D7A06025A27E0F50878082274F71281
:1059C0000A8A74FF120A1A120352125A0D7A080236
:1059D0005A2774F7120A8A74FF120A1A12035E1207
:1059E0005A0D7A09025A2774F7120A8A74FF120AAA
:1059F0001A120358125A0D7A0A025A27E985188298
:105A0000851983125A0722F0AC18AD1922E98518BE
:105A100082851983125A07790122120A307F020205
:105A20000B5C7403025A387B201203167900740150
:105A3000120A307F01020B5C120A30D083D082023E
:105A40000132125A0779032274F6120A8A74F71285
:105A50000A1A851882851983E4F0750808F5097813
:105A600008120C9DEAFCEBFD7403120A66AA82ABD5
:105A7000831205E67402120A30AC18AD1979097A5E
:105A8000187B201203167409025A1AC082C083744C
:105A9000FD120A1A851882851983E4F004120A6639
:105AA0007404F07402120A66E4125A42FA7BFC1281
:105AB0000328025A22C082C08374FD120A1A851874
:105AC000828519837401F0120A667404F07402125C
:105AD0000A66E4125A427A0180D3C082C08374FD00
:105AE000120A1A8518828519837416F07401120A35
:105AF000667404F07402120A66E4125A427A1602BC
:105B00005AADC082C0839003D1E4F053F3FD53FD3E
:105B1000FD53F5FE53FFFE43F7019003D2F0A3F0CF
:105B20009003D4F0D083D08202013274F7120A8A33
:105B3000E99003D5F09003D2EAF0A3EBF09003D5FF
